{"abi":[{"type":"constructor","inputs":[{"name":"_supportedTokens","type":"address[]","internalType":"address[]"}],"stateMutability":"nonpayable"},{"type":"function","name":"depositTokens","inputs":[{"name":"_user","type":"address","internalType":"address"},{"name":"_token","type":"address","internalType":"address"},{"name":"_amount","type":"uint256","internalType":"uint256"},{"name":"_lpId","type":"uint256","internalType":"uint256"}],"outputs":[],"stateMutability":"nonpayable"},{"type":"function","name":"getDepositedToken","inputs":[{"name":"_lpId","type":"uint256","internalType":"uint256"},{"name":"_token","type":"address","internalType":"address"}],"outputs":[{"name":"","type":"uint256","internalType":"uint256"}],"stateMutability":"view"},{"type":"function","name":"isTokenSupported","inputs":[{"name":"_tokenAddress","type":"address","internalType":"address"}],"outputs":[{"name":"","type":"bool","internalType":"bool"}],"stateMutability":"view"},{"type":"event","name":"TokenVault__TokenDepositedEvent","inputs":[{"name":"_token","type":"address","indexed":false,"internalType":"address"},{"name":"_amount","type":"uint256","indexed":false,"internalType":"uint256"},{"name":"_lpId","type":"uint256","indexed":false,"internalType":"uint256"}],"anonymous":false},{"type":"error","name":"TokenVault__TokenTransferFailed","inputs":[]}],"bytecode":{"object":"0x608060405234801561001057600080fd5b506040516104a63803806104a683398101604081905261002f916100c5565b60005b815181101561008c57600160008084848151811061005257610052610194565b6020908102919091018101516001600160a01b03168252810191909152604001600020805460ff1916911515919091179055600101610032565b50506101aa565b634e487b7160e01b600052604160045260246000fd5b80516001600160a01b03811681146100c057600080fd5b919050565b6000602082840312156100d757600080fd5b81516001600160401b038111156100ed57600080fd5b8201601f810184136100fe57600080fd5b80516001600160401b0381111561011757610117610093565b604051600582901b90603f8201601f191681016001600160401b038111828210171561014557610145610093565b60405291825260208184018101929081018784111561016357600080fd5b6020850194505b838510156101895761017b856100a9565b81526020948501940161016a565b509695505050505050565b634e487b7160e01b600052603260045260246000fd5b6102ed806101b96000396000f3fe608060405234801561001057600080fd5b50600436106100415760003560e01c8063487cda0d146100465780636fc7dec11461005b57806375151b63146100a4575b600080fd5b610059610054366004610205565b6100e0565b005b610091610069366004610247565b60009182526001602090815260408084206001600160a01b0393909316845291905290205490565b6040519081526020015b60405180910390f35b6100d06100b2366004610273565b6001600160a01b031660009081526020819052604090205460ff1690565b604051901515815260200161009b565b6040516323b872dd60e01b81526001600160a01b03858116600483015230602483015260448201849052600091908516906323b872dd906064016020604051808303816000875af1158015610139573d6000803e3d6000fd5b505050506040513d601f19601f8201168201806040525081019061015d9190610295565b90508061017d57604051631d82ff6960e31b815260040160405180910390fd5b60008281526001602090815260408083206001600160a01b03881680855290835292819020869055805192835290820185905281018390527f894dec9a083b5a21e7711b375ed0f65e9f7f0caad15bca4e63d416996c64e31a9060600160405180910390a15050505050565b80356001600160a01b038116811461020057600080fd5b919050565b6000806000806080858703121561021b57600080fd5b610224856101e9565b9350610232602086016101e9565b93969395505050506040820135916060013590565b6000806040838503121561025a57600080fd5b8235915061026a602084016101e9565b90509250929050565b60006020828403121561028557600080fd5b61028e826101e9565b9392505050565b6000602082840312156102a757600080fd5b8151801515811461028e57600080fdfea26469706673582212209300c1ab05bc2618db8878be7bc27dd3f422ea8685e5d1aa44f101d20fed764f64736f6c634300081a0033","linkReferences":{}},"methodIdentifiers":{"depositTokens(address,address,uint256,uint256)":"487cda0d","getDepositedToken(uint256,address)":"6fc7dec1","isTokenSupported(address)":"75151b63"},"id":31}