{"abi":[{"type":"constructor","inputs":[{"name":"_lpManager","type":"address","internalType":"address"},{"name":"_oracleClient","type":"address","internalType":"address"}],"stateMutability":"nonpayable"},{"type":"function","name":"getOrderById","inputs":[{"name":"_orderId","type":"uint256","internalType":"uint256"}],"outputs":[{"name":"","type":"tuple","internalType":"struct Order","components":[{"name":"orderId","type":"uint256","internalType":"uint256"},{"name":"lpId","type":"uint256","internalType":"uint256"},{"name":"amountIn","type":"uint256","internalType":"uint256"},{"name":"amountOut","type":"uint256","internalType":"uint256"},{"name":"inPrice","type":"uint256","internalType":"uint256"},{"name":"traderAddress","type":"address","internalType":"address"},{"name":"inToken","type":"address","internalType":"address"},{"name":"outToken","type":"address","internalType":"address"},{"name":"isFulfilled","type":"bool","internalType":"bool"}]}],"stateMutability":"view"},{"type":"function","name":"getPairId","inputs":[{"name":"_token","type":"address","internalType":"address"}],"outputs":[{"name":"","type":"uint256","internalType":"uint256"}],"stateMutability":"view"},{"type":"function","name":"matchOrder","inputs":[{"name":"_orderId","type":"uint256","internalType":"uint256"},{"name":"_lpId","type":"uint256","internalType":"uint256"},{"name":"_amountOut","type":"uint256","internalType":"uint256"},{"name":"_tradingToken","type":"address","internalType":"address"}],"outputs":[],"stateMutability":"nonpayable"},{"type":"function","name":"placeLimitOrder","inputs":[{"name":"_inToken","type":"address","internalType":"address"},{"name":"_outToken","type":"address","internalType":"address"},{"name":"_amount","type":"uint256","internalType":"uint256"},{"name":"_price","type":"uint256","internalType":"uint256"}],"outputs":[],"stateMutability":"nonpayable"},{"type":"function","name":"placeMarketOrder","inputs":[{"name":"_inToken","type":"address","internalType":"address"},{"name":"_outToken","type":"address","internalType":"address"},{"name":"_amount","type":"uint256","internalType":"uint256"}],"outputs":[],"stateMutability":"nonpayable"},{"type":"function","name":"priceIndex","inputs":[{"name":"","type":"address","internalType":"address"}],"outputs":[{"name":"","type":"uint256","internalType":"uint256"}],"stateMutability":"view"},{"type":"function","name":"totalOrders","inputs":[],"outputs":[{"name":"","type":"uint256","internalType":"uint256"}],"stateMutability":"view"},{"type":"event","name":"Orderbook__OrderMatched","inputs":[{"name":"orderId","type":"uint256","indexed":false,"internalType":"uint256"},{"name":"matchedLpId","type":"uint256","indexed":false,"internalType":"uint256"}],"anonymous":false},{"type":"event","name":"Orderbook__OrderPlaced","inputs":[{"name":"orderId","type":"uint256","indexed":false,"internalType":"uint256"},{"name":"amountIn","type":"uint256","indexed":false,"internalType":"uint256"},{"name":"inPrice","type":"uint256","indexed":false,"internalType":"uint256"},{"name":"traderAddress","type":"address","indexed":false,"internalType":"address"},{"name":"inToken","type":"address","indexed":false,"internalType":"address"},{"name":"outToken","type":"address","indexed":false,"internalType":"address"}],"anonymous":false},{"type":"error","name":"Orderbook__InvalidMatching","inputs":[]},{"type":"error","name":"Orderbook__TokenTransferFailed","inputs":[]}],"bytecode":{"object":"0x60c06040526001805534801561001457600080fd5b50604051610fdb380380610fdb83398101604081905261003391610066565b6001600160a01b039182166080521660a052610099565b80516001600160a01b038116811461006157600080fd5b919050565b6000806040838503121561007957600080fd5b6100828361004a565b91506100906020840161004a565b90509250929050565b60805160a051610ef36100e86000396000610a630152600081816103980152818161042f0152818161051e015281816105be015281816106a60152818161075101526109520152610ef36000f3fe608060405234801561001057600080fd5b506004361061007d5760003560e01c80636c9d09df1161005b5780636c9d09df146100d357806379e25f3a146100e65780638ed46a0d14610106578063b418c55f1461011957600080fd5b806309d8538b146100825780631d8344091461009757806342b50a7a146100b3575b600080fd5b610095610090366004610b2f565b61012c565b005b6100a060015481565b6040519081526020015b60405180910390f35b6100c66100c1366004610b75565b61026e565b6040516100aa9190610b8e565b6100956100e1366004610c11565b610369565b6100a06100f4366004610c52565b60006020819052908152604090205481565b6100a0610114366004610c52565b61072f565b610095610127366004610c76565b6107c4565b60018054908190600061013e83610cb7565b909155505060408051610120810182528281526000602080830182815283850188815260608501848152608086018981523360a088018181526001600160a01b038f811660c08b019081528f821660e08c019081526101008c018b81528e8c5260029a8b90529a8d90208c518155985160018a0155965198880198909855935160038701559151600486015590516005850180549184166001600160a01b03199283161790559451600685018054918416919096161790945590516007909201805494511515600160a01b026001600160a81b0319909516929091169190911792909217909155915190917f9fb8e922713ac70a1463c59ad43dc97ac69f269d656b08e54bddaa1d13279c6c9161025e918591889188918c908c90610cde565b60405180910390a1505050505050565b6102da604051806101200160405280600081526020016000815260200160008152602001600081526020016000815260200160006001600160a01b0316815260200160006001600160a01b0316815260200160006001600160a01b031681526020016000151581525090565b50600090815260026020818152604092839020835161012081018552815481526001820154928101929092529182015492810192909252600381015460608301526004810154608083015260058101546001600160a01b0390811660a08401526006820154811660c084015260079091015490811660e0830152600160a01b900460ff16151561010082015290565b60006103748561026e565b604051630eaed82360e11b8152600481018690529091506000906001600160a01b037f00000000000000000000000000000000000000000000000000000000000000001690631d5db0469060240160e060405180830381865afa1580156103df573d6000803e3d6000fd5b505050506040513d601f19601f820116820180604052508101906104039190610d9e565b604051632020a35960e21b8152600481018790526001600160a01b0385811660248301529192506000917f000000000000000000000000000000000000000000000000000000000000000016906380828d649060440160a060405180830381865afa158015610476573d6000803e3d6000fd5b505050506040513d601f19601f8201168201806040525081019061049a9190610e14565b905060006104b08460c001518560e00151610a5c565b6060850187905260e08501519091506001600160a01b0380871691160361064d57816060015181111580156104e9575081604001518110155b80156104fd57508160800151846060015111155b156106345760608401516040516324f1f88960e01b81526001600160a01b037f000000000000000000000000000000000000000000000000000000000000000016916324f1f8899161055b918b916001906000908c90600401610e30565b600060405180830381600087803b15801561057557600080fd5b505af1158015610589573d6000803e3d6000fd5b505050506040838101516020015160c08601518683015192516324f1f88960e01b81526001600160a01b0392831683831614937f0000000000000000000000000000000000000000000000000000000000000000909316926324f1f889926105fc928d9291600091889190600401610e30565b600060405180830381600087803b15801561061657600080fd5b505af115801561062a573d6000803e3d6000fd5b50505050506106e2565b604051630b2a77b160e11b815260040160405180910390fd5b826040015160600151811115801561066d57508260400151604001518110155b80156106855750826040015160800151846060015111155b156106345760608401516040516324f1f88960e01b81526001600160a01b037f000000000000000000000000000000000000000000000000000000000000000016916324f1f8899161055b918b9160019081908c90600401610e30565b835183516040517fcb3b2fa67fce991069977cb13aa358b03ce6671e4d69d94356c90bad3d5998859261071d92908252602082015260400190565b60405180910390a15050505050505050565b604051634cf4358d60e11b81526001600160a01b0382811660048301526000917f0000000000000000000000000000000000000000000000000000000000000000909116906399e86b1a90602401602060405180830381865afa15801561079a573d6000803e3d6000fd5b505050506040513d601f19601f820116820180604052508101906107be9190610e5e565b92915050565b60006107d08484610a5c565b60018054919250819060006107e483610cb7565b919050555060006040518061012001604052808381526020016000815260200185815260200160008152602001848152602001336001600160a01b03168152602001876001600160a01b03168152602001866001600160a01b031681526020016000151581525090508060026000848152602001908152602001600020600082015181600001556020820151816001015560408201518160020155606082015181600301556080820151816004015560a08201518160050160006101000a8154816001600160a01b0302191690836001600160a01b0316021790555060c08201518160060160006101000a8154816001600160a01b0302191690836001600160a01b0316021790555060e08201518160070160006101000a8154816001600160a01b0302191690836001600160a01b031602179055506101008201518160070160146101000a81548160ff0219169083151502179055509050506000866001600160a01b03166323b872dd337f0000000000000000000000000000000000000000000000000000000000000000886040518463ffffffff1660e01b81526004016109af939291906001600160a01b039384168152919092166020820152604081019190915260600190565b6020604051808303816000875af11580156109ce573d6000803e3d6000fd5b505050506040513d601f19601f820116820180604052508101906109f29190610e77565b905080610a12576040516310cb94cb60e31b815260040160405180910390fd5b7f9fb8e922713ac70a1463c59ad43dc97ac69f269d656b08e54bddaa1d13279c6c838686338b8b604051610a4b96959493929190610cde565b60405180910390a150505050505050565b60008060007f00000000000000000000000000000000000000000000000000000000000000006001600160a01b03166317fee91f610a998761072f565b610aa28761072f565b6040516001600160e01b031960e085901b16815260048101929092526024820152600160448201526064016040805180830381865afa158015610ae9573d6000803e3d6000fd5b505050506040513d601f19601f82011682018060405250810190610b0d9190610e99565b5095945050505050565b6001600160a01b0381168114610b2c57600080fd5b50565b60008060008060808587031215610b4557600080fd5b8435610b5081610b17565b93506020850135610b6081610b17565b93969395505050506040820135916060013590565b600060208284031215610b8757600080fd5b5035919050565b600061012082019050825182526020830151602083015260408301516040830152606083015160608301526080830151608083015260a083015160018060a01b0380821660a08501528060c08601511660c0850152505060e0830151610bff60e08401826001600160a01b03169052565b50610100928301511515919092015290565b60008060008060808587031215610c2757600080fd5b8435935060208501359250604085013591506060850135610c4781610b17565b939692955090935050565b600060208284031215610c6457600080fd5b8135610c6f81610b17565b9392505050565b600080600060608486031215610c8b57600080fd5b8335610c9681610b17565b92506020840135610ca681610b17565b929592945050506040919091013590565b600060018201610cd757634e487b7160e01b600052601160045260246000fd5b5060010190565b958652602086019490945260408501929092526001600160a01b03908116606085015290811660808401521660a082015260c00190565b600060a08284031215610d2757600080fd5b60405160a0810181811067ffffffffffffffff82111715610d5857634e487b7160e01b600052604160045260246000fd5b8060405250809150825181526020830151610d7281610b17565b806020830152506040830151604082015260608301516060820152608083015160808201525092915050565b600060e08284031215610db057600080fd5b6040516060810181811067ffffffffffffffff82111715610de157634e487b7160e01b600052604160045260246000fd5b604052825181526020830151610df681610b17565b6020820152610e088460408501610d15565b60408201529392505050565b600060a08284031215610e2657600080fd5b610c6f8383610d15565b94855260208501939093529015156040840152151560608301526001600160a01b0316608082015260a00190565b600060208284031215610e7057600080fd5b5051919050565b600060208284031215610e8957600080fd5b81518015158114610c6f57600080fd5b60008060408385031215610eac57600080fd5b50508051602090910151909290915056fea2646970667358221220ec5971523f7e3e2bf065dbd22e876d66f62bfeb3f4aadf7d1e23b2eb16e53a4364736f6c63430008140033","linkReferences":{}},"methodIdentifiers":{"getOrderById(uint256)":"42b50a7a","getPairId(address)":"8ed46a0d","matchOrder(uint256,uint256,uint256,address)":"6c9d09df","placeLimitOrder(address,address,uint256,uint256)":"09d8538b","placeMarketOrder(address,address,uint256)":"b418c55f","priceIndex(address)":"79e25f3a","totalOrders()":"1d834409"},"id":37}