{"abi":[{"type":"constructor","inputs":[],"stateMutability":"nonpayable"},{"type":"function","name":"getMarketOrderById","inputs":[{"name":"_orderId","type":"uint256","internalType":"uint256"}],"outputs":[{"name":"","type":"tuple","internalType":"struct Order","components":[{"name":"orderId","type":"uint256","internalType":"uint256"},{"name":"lpId","type":"uint256","internalType":"uint256"},{"name":"amountIn","type":"uint256","internalType":"uint256"},{"name":"amountOut","type":"uint256","internalType":"uint256"},{"name":"inPrice","type":"uint256","internalType":"uint256"},{"name":"traderAddress","type":"address","internalType":"address"},{"name":"inToken","type":"address","internalType":"address"},{"name":"outToken","type":"address","internalType":"address"},{"name":"isFulfilled","type":"bool","internalType":"bool"}]}],"stateMutability":"view"},{"type":"function","name":"placeLimitOrder","inputs":[{"name":"_inToken","type":"address","internalType":"address"},{"name":"_outToken","type":"address","internalType":"address"},{"name":"_amount","type":"uint256","internalType":"uint256"},{"name":"_price","type":"uint256","internalType":"uint256"}],"outputs":[],"stateMutability":"nonpayable"},{"type":"function","name":"placeMarketOrder","inputs":[{"name":"_inToken","type":"address","internalType":"address"},{"name":"_outToken","type":"address","internalType":"address"},{"name":"_amount","type":"uint256","internalType":"uint256"}],"outputs":[],"stateMutability":"nonpayable"},{"type":"function","name":"totalOrders","inputs":[],"outputs":[{"name":"","type":"uint256","internalType":"uint256"}],"stateMutability":"view"},{"type":"event","name":"Orderbook__MarketOrderPlaced","inputs":[{"name":"orderId","type":"uint256","indexed":false,"internalType":"uint256"},{"name":"amountIn","type":"uint256","indexed":false,"internalType":"uint256"},{"name":"inPrice","type":"uint256","indexed":false,"internalType":"uint256"},{"name":"traderAddress","type":"address","indexed":false,"internalType":"address"},{"name":"inToken","type":"address","indexed":false,"internalType":"address"},{"name":"outToken","type":"address","indexed":false,"internalType":"address"}],"anonymous":false}],"bytecode":{"object":"0x60806040526001600055348015601457600080fd5b506104d8806100246000396000f3fe608060405234801561001057600080fd5b506004361061004c5760003560e01c806309d8538b146100515780631d834409146100665780638f2ebca414610082578063b418c55f146100a2575b600080fd5b61006461005f366004610353565b6100b5565b005b61006f60005481565b6040519081526020015b60405180910390f35b610095610090366004610395565b610227565b60405161007991906103ae565b6100646100b036600461043e565b610323565b60008054908190806100c68361047b565b909155505060408051610120810182528281526000602080830182815283850188815260608501848152608086018981523360a088018181526001600160a01b038f811660c08b019081528f821660e08c019081526101008c018b81528e8c5260019a8b90529a8d90208c51815598519989019990995595516002880155935160038701559151600486015590516005850180549184166001600160a01b03199283161790559251600685018054918416919094161790925592516007909201805494511515600160a01b026001600160a81b03199095169290931691909117929092179055915190917f68e4f578153ca82a6075dcf83eb283b1c18911628b31707b7fa80b1a9a305b5891610217918591889188918c908c90958652602086019490945260408501929092526001600160a01b03908116606085015290811660808401521660a082015260c00190565b60405180910390a1505050505050565b610293604051806101200160405280600081526020016000815260200160008152602001600081526020016000815260200160006001600160a01b0316815260200160006001600160a01b0316815260200160006001600160a01b031681526020016000151581525090565b50600090815260016020818152604092839020835161012081018552815481529281015491830191909152600281015492820192909252600382015460608201526004820154608082015260058201546001600160a01b0390811660a08301526006830154811660c083015260079092015491821660e0820152600160a01b90910460ff16151561010082015290565b600080546103e8918190806100c68361047b565b80356001600160a01b038116811461034e57600080fd5b919050565b6000806000806080858703121561036957600080fd5b61037285610337565b935061038060208601610337565b93969395505050506040820135916060013590565b6000602082840312156103a757600080fd5b5035919050565b600061012082019050825182526020830151602083015260408301516040830152606083015160608301526080830151608083015260018060a01b0360a08401511660a083015260018060a01b0360c08401511660c083015260e083015161042160e08401826001600160a01b03169052565b5061010083015161043761010084018215159052565b5092915050565b60008060006060848603121561045357600080fd5b61045c84610337565b925061046a60208501610337565b929592945050506040919091013590565b60006001820161049b57634e487b7160e01b600052601160045260246000fd5b506001019056fea2646970667358221220997e1ce2ae169d16637c21da40345171e24560ea130568f51dc0d47afd6c27ff64736f6c634300081a0033","linkReferences":{}},"methodIdentifiers":{"getMarketOrderById(uint256)":"8f2ebca4","placeLimitOrder(address,address,uint256,uint256)":"09d8538b","placeMarketOrder(address,address,uint256)":"b418c55f","totalOrders()":"1d834409"},"id":31}