{"abi":[{"type":"constructor","inputs":[{"name":"_lpManager","type":"address","internalType":"address"},{"name":"_oracleClient","type":"address","internalType":"address"}],"stateMutability":"nonpayable"},{"type":"function","name":"getOrderById","inputs":[{"name":"_orderId","type":"uint256","internalType":"uint256"}],"outputs":[{"name":"","type":"tuple","internalType":"struct Order","components":[{"name":"orderId","type":"uint256","internalType":"uint256"},{"name":"lpId","type":"uint256","internalType":"uint256"},{"name":"amountIn","type":"uint256","internalType":"uint256"},{"name":"amountOut","type":"uint256","internalType":"uint256"},{"name":"inPrice","type":"uint256","internalType":"uint256"},{"name":"traderAddress","type":"address","internalType":"address"},{"name":"inToken","type":"address","internalType":"address"},{"name":"outToken","type":"address","internalType":"address"},{"name":"isFulfilled","type":"bool","internalType":"bool"}]}],"stateMutability":"view"},{"type":"function","name":"matchOrder","inputs":[{"name":"_orderId","type":"uint256","internalType":"uint256"},{"name":"_lpId","type":"uint256","internalType":"uint256"},{"name":"_tradingToken","type":"address","internalType":"address"}],"outputs":[],"stateMutability":"nonpayable"},{"type":"function","name":"placeLimitOrder","inputs":[{"name":"_inToken","type":"address","internalType":"address"},{"name":"_outToken","type":"address","internalType":"address"},{"name":"_amount","type":"uint256","internalType":"uint256"},{"name":"_price","type":"uint256","internalType":"uint256"}],"outputs":[],"stateMutability":"nonpayable"},{"type":"function","name":"placeMarketOrder","inputs":[{"name":"_inToken","type":"address","internalType":"address"},{"name":"_outToken","type":"address","internalType":"address"},{"name":"_amount","type":"uint256","internalType":"uint256"}],"outputs":[],"stateMutability":"nonpayable"},{"type":"function","name":"priceIndex","inputs":[{"name":"","type":"address","internalType":"address"}],"outputs":[{"name":"","type":"uint256","internalType":"uint256"}],"stateMutability":"view"},{"type":"function","name":"totalOrders","inputs":[],"outputs":[{"name":"","type":"uint256","internalType":"uint256"}],"stateMutability":"view"},{"type":"event","name":"Orderbook__MarketOrderPlaced","inputs":[{"name":"orderId","type":"uint256","indexed":false,"internalType":"uint256"},{"name":"amountIn","type":"uint256","indexed":false,"internalType":"uint256"},{"name":"inPrice","type":"uint256","indexed":false,"internalType":"uint256"},{"name":"traderAddress","type":"address","indexed":false,"internalType":"address"},{"name":"inToken","type":"address","indexed":false,"internalType":"address"},{"name":"outToken","type":"address","indexed":false,"internalType":"address"}],"anonymous":false},{"type":"error","name":"Orderbook__InvalidMatching","inputs":[]},{"type":"error","name":"Orderbook__TokenTransferFailed","inputs":[]}],"bytecode":{"object":"0x60c06040526001805534801561001457600080fd5b50604051610dae380380610dae83398101604081905261003391610066565b6001600160a01b039182166080521660a052610099565b80516001600160a01b038116811461006157600080fd5b919050565b6000806040838503121561007957600080fd5b6100828361004a565b91506100906020840161004a565b90509250929050565b60805160a051610cd06100de600039600050506000818161036a01528181610401015281816104df0152818161057f01528181610667015261082f0152610cd06000f3fe608060405234801561001057600080fd5b50600436106100625760003560e01c806309d8538b146100675780631d8344091461007c57806342b50a7a1461009857806379e25f3a146100b857806392b16acd146100d8578063b418c55f146100eb575b600080fd5b61007a610075366004610951565b6100fe565b005b61008560015481565b6040519081526020015b60405180910390f35b6100ab6100a6366004610997565b610240565b60405161008f91906109b0565b6100856100c6366004610a33565b60006020819052908152604090205481565b61007a6100e6366004610a57565b61033b565b61007a6100f9366004610a90565b6106ac565b60018054908190600061011083610ad1565b909155505060408051610120810182528281526000602080830182815283850188815260608501848152608086018981523360a088018181526001600160a01b038f811660c08b019081528f821660e08c019081526101008c018b81528e8c5260029a8b90529a8d90208c518155985160018a0155965198880198909855935160038701559151600486015590516005850180549184166001600160a01b03199283161790559451600685018054918416919096161790945590516007909201805494511515600160a01b026001600160a81b0319909516929091169190911792909217909155915190917f68e4f578153ca82a6075dcf83eb283b1c18911628b31707b7fa80b1a9a305b5891610230918591889188918c908c90610af8565b60405180910390a1505050505050565b6102ac604051806101200160405280600081526020016000815260200160008152602001600081526020016000815260200160006001600160a01b0316815260200160006001600160a01b0316815260200160006001600160a01b031681526020016000151581525090565b50600090815260026020818152604092839020835161012081018552815481526001820154928101929092529182015492810192909252600381015460608301526004810154608083015260058101546001600160a01b0390811660a08401526006820154811660c084015260079091015490811660e0830152600160a01b900460ff16151561010082015290565b600061034684610240565b604051630eaed82360e11b8152600481018590529091506000906001600160a01b037f00000000000000000000000000000000000000000000000000000000000000001690631d5db0469060240160e060405180830381865afa1580156103b1573d6000803e3d6000fd5b505050506040513d601f19601f820116820180604052508101906103d59190610bb8565b604051632020a35960e21b8152600481018690526001600160a01b0385811660248301529192506000917f000000000000000000000000000000000000000000000000000000000000000016906380828d649060440160a060405180830381865afa158015610448573d6000803e3d6000fd5b505050506040513d601f19601f8201168201806040525081019061046c9190610c2e565b905060006103e89050846001600160a01b03168460e001516001600160a01b03160361060e57816060015181111580156104aa575081604001518110155b80156104be57508160800151846060015111155b156105f55760608401516040516324f1f88960e01b81526001600160a01b037f000000000000000000000000000000000000000000000000000000000000000016916324f1f8899161051c918a916001906000908c90600401610c4a565b600060405180830381600087803b15801561053657600080fd5b505af115801561054a573d6000803e3d6000fd5b505050506040838101516020015160c08601518683015192516324f1f88960e01b81526001600160a01b0392831683831614937f0000000000000000000000000000000000000000000000000000000000000000909316926324f1f889926105bd928c9291600091889190600401610c4a565b600060405180830381600087803b1580156105d757600080fd5b505af11580156105eb573d6000803e3d6000fd5b50505050506106a3565b604051630b2a77b160e11b815260040160405180910390fd5b826040015160600151811115801561062e57508260400151604001518110155b80156106465750826040015160800151846060015111155b156105f55760608401516040516324f1f88960e01b81526001600160a01b037f000000000000000000000000000000000000000000000000000000000000000016916324f1f8899161051c918a9160019081908c90600401610c4a565b50505050505050565b600180546103e891819060006106c183610ad1565b919050555060006040518061012001604052808381526020016000815260200185815260200160008152602001848152602001336001600160a01b03168152602001876001600160a01b03168152602001866001600160a01b031681526020016000151581525090508060026000848152602001908152602001600020600082015181600001556020820151816001015560408201518160020155606082015181600301556080820151816004015560a08201518160050160006101000a8154816001600160a01b0302191690836001600160a01b0316021790555060c08201518160060160006101000a8154816001600160a01b0302191690836001600160a01b0316021790555060e08201518160070160006101000a8154816001600160a01b0302191690836001600160a01b031602179055506101008201518160070160146101000a81548160ff0219169083151502179055509050506000866001600160a01b03166323b872dd337f0000000000000000000000000000000000000000000000000000000000000000886040518463ffffffff1660e01b815260040161088c939291906001600160a01b039384168152919092166020820152604081019190915260600190565b6020604051808303816000875af11580156108ab573d6000803e3d6000fd5b505050506040513d601f19601f820116820180604052508101906108cf9190610c78565b9050806108ef576040516310cb94cb60e31b815260040160405180910390fd5b7f68e4f578153ca82a6075dcf83eb283b1c18911628b31707b7fa80b1a9a305b58838686338b8b60405161092896959493929190610af8565b60405180910390a150505050505050565b6001600160a01b038116811461094e57600080fd5b50565b6000806000806080858703121561096757600080fd5b843561097281610939565b9350602085013561098281610939565b93969395505050506040820135916060013590565b6000602082840312156109a957600080fd5b5035919050565b600061012082019050825182526020830151602083015260408301516040830152606083015160608301526080830151608083015260a083015160018060a01b0380821660a08501528060c08601511660c0850152505060e0830151610a2160e08401826001600160a01b03169052565b50610100928301511515919092015290565b600060208284031215610a4557600080fd5b8135610a5081610939565b9392505050565b600080600060608486031215610a6c57600080fd5b83359250602084013591506040840135610a8581610939565b809150509250925092565b600080600060608486031215610aa557600080fd5b8335610ab081610939565b92506020840135610ac081610939565b929592945050506040919091013590565b600060018201610af157634e487b7160e01b600052601160045260246000fd5b5060010190565b958652602086019490945260408501929092526001600160a01b03908116606085015290811660808401521660a082015260c00190565b600060a08284031215610b4157600080fd5b60405160a0810181811067ffffffffffffffff82111715610b7257634e487b7160e01b600052604160045260246000fd5b8060405250809150825181526020830151610b8c81610939565b806020830152506040830151604082015260608301516060820152608083015160808201525092915050565b600060e08284031215610bca57600080fd5b6040516060810181811067ffffffffffffffff82111715610bfb57634e487b7160e01b600052604160045260246000fd5b604052825181526020830151610c1081610939565b6020820152610c228460408501610b2f565b60408201529392505050565b600060a08284031215610c4057600080fd5b610a508383610b2f565b94855260208501939093529015156040840152151560608301526001600160a01b0316608082015260a00190565b600060208284031215610c8a57600080fd5b81518015158114610a5057600080fdfea26469706673582212202103f8930fd2801746282b2ceee2ba7923e6445eead1ced63e9a2d073b70d8e664736f6c63430008140033","linkReferences":{}},"methodIdentifiers":{"getOrderById(uint256)":"42b50a7a","matchOrder(uint256,uint256,address)":"92b16acd","placeLimitOrder(address,address,uint256,uint256)":"09d8538b","placeMarketOrder(address,address,uint256)":"b418c55f","priceIndex(address)":"79e25f3a","totalOrders()":"1d834409"},"id":44}