{"abi":[{"type":"constructor","inputs":[],"stateMutability":"nonpayable"},{"type":"function","name":"increment","inputs":[],"outputs":[],"stateMutability":"nonpayable"},{"type":"function","name":"setNumber","inputs":[{"name":"newNumber","type":"uint256","internalType":"uint256"}],"outputs":[],"stateMutability":"nonpayable"}],"bytecode":{"object":"0x6080604052348015600f57600080fd5b50609580601d6000396000f3fe6080604052348015600f57600080fd5b506004361060325760003560e01c80633fb5c1cb146037578063d09de08a146045575b600080fd5b604560423660046047565b50565b005b600060208284031215605857600080fd5b503591905056fea2646970667358221220f13c1fb09b53183154e28ccef7ea32cc55bd9b35c793783a481de36c86d1378c64736f6c634300081a0033","linkReferences":{}},"methodIdentifiers":{"increment()":"d09de08a","setNumber(uint256)":"3fb5c1cb"},"id":0}