{"abi":[{"type":"constructor","inputs":[{"name":"_lpManager","type":"address","internalType":"address"}],"stateMutability":"nonpayable"},{"type":"function","name":"getOrderById","inputs":[{"name":"_orderId","type":"uint256","internalType":"uint256"}],"outputs":[{"name":"","type":"tuple","internalType":"struct Order","components":[{"name":"orderId","type":"uint256","internalType":"uint256"},{"name":"lpId","type":"uint256","internalType":"uint256"},{"name":"amountIn","type":"uint256","internalType":"uint256"},{"name":"amountOut","type":"uint256","internalType":"uint256"},{"name":"inPrice","type":"uint256","internalType":"uint256"},{"name":"traderAddress","type":"address","internalType":"address"},{"name":"inToken","type":"address","internalType":"address"},{"name":"outToken","type":"address","internalType":"address"},{"name":"isFulfilled","type":"bool","internalType":"bool"}]}],"stateMutability":"view"},{"type":"function","name":"matchOrder","inputs":[{"name":"_orderId","type":"uint256","internalType":"uint256"},{"name":"_lpId","type":"uint256","internalType":"uint256"},{"name":"_tradingToken","type":"address","internalType":"address"}],"outputs":[],"stateMutability":"nonpayable"},{"type":"function","name":"placeLimitOrder","inputs":[{"name":"_inToken","type":"address","internalType":"address"},{"name":"_outToken","type":"address","internalType":"address"},{"name":"_amount","type":"uint256","internalType":"uint256"},{"name":"_price","type":"uint256","internalType":"uint256"}],"outputs":[],"stateMutability":"nonpayable"},{"type":"function","name":"placeMarketOrder","inputs":[{"name":"_inToken","type":"address","internalType":"address"},{"name":"_outToken","type":"address","internalType":"address"},{"name":"_amount","type":"uint256","internalType":"uint256"}],"outputs":[],"stateMutability":"nonpayable"},{"type":"function","name":"totalOrders","inputs":[],"outputs":[{"name":"","type":"uint256","internalType":"uint256"}],"stateMutability":"view"},{"type":"event","name":"Orderbook__MarketOrderPlaced","inputs":[{"name":"orderId","type":"uint256","indexed":false,"internalType":"uint256"},{"name":"amountIn","type":"uint256","indexed":false,"internalType":"uint256"},{"name":"inPrice","type":"uint256","indexed":false,"internalType":"uint256"},{"name":"traderAddress","type":"address","indexed":false,"internalType":"address"},{"name":"inToken","type":"address","indexed":false,"internalType":"address"},{"name":"outToken","type":"address","indexed":false,"internalType":"address"}],"anonymous":false},{"type":"error","name":"Orderbook__InvalidMatching","inputs":[]},{"type":"error","name":"Orderbook__TokenTransferFailed","inputs":[]}],"bytecode":{"object":"0x60a06040526001600055348015601457600080fd5b50604051610d45380380610d458339810160408190526031916041565b6001600160a01b0316608052606f565b600060208284031215605257600080fd5b81516001600160a01b0381168114606857600080fd5b9392505050565b608051610c986100ad6000396000818161033e015281816103d5015281816104b3015281816105530152818161063b01526108020152610c986000f3fe608060405234801561001057600080fd5b50600436106100575760003560e01c806309d8538b1461005c5780631d8344091461007157806342b50a7a1461008d57806392b16acd146100ad578063b418c55f146100c0575b600080fd5b61006f61006a366004610924565b6100d3565b005b61007a60005481565b6040519081526020015b60405180910390f35b6100a061009b36600461096a565b610213565b6040516100849190610983565b61006f6100bb366004610a13565b61030f565b61006f6100ce366004610a4c565b610680565b60008054908190806100e483610a8d565b909155505060408051610120810182528281526000602080830182815283850188815260608501848152608086018981523360a088018181526001600160a01b038f811660c08b019081528f821660e08c019081526101008c018b81528e8c5260019a8b90529a8d90208c51815598519989019990995595516002880155935160038701559151600486015590516005850180549184166001600160a01b03199283161790559251600685018054918416919094161790925592516007909201805494511515600160a01b026001600160a81b03199095169290931691909117929092179055915190917f68e4f578153ca82a6075dcf83eb283b1c18911628b31707b7fa80b1a9a305b5891610203918591889188918c908c90610ab4565b60405180910390a1505050505050565b61027f604051806101200160405280600081526020016000815260200160008152602001600081526020016000815260200160006001600160a01b0316815260200160006001600160a01b0316815260200160006001600160a01b031681526020016000151581525090565b50600090815260016020818152604092839020835161012081018552815481529281015491830191909152600281015492820192909252600382015460608201526004820154608082015260058201546001600160a01b0390811660a08301526006830154811660c083015260079092015491821660e0820152600160a01b90910460ff16151561010082015290565b600061031a84610213565b604051630eaed82360e11b8152600481018590529091506000906001600160a01b037f00000000000000000000000000000000000000000000000000000000000000001690631d5db0469060240160e060405180830381865afa158015610385573d6000803e3d6000fd5b505050506040513d601f19601f820116820180604052508101906103a99190610b72565b604051632020a35960e21b8152600481018690526001600160a01b0385811660248301529192506000917f000000000000000000000000000000000000000000000000000000000000000016906380828d649060440160a060405180830381865afa15801561041c573d6000803e3d6000fd5b505050506040513d601f19601f820116820180604052508101906104409190610bef565b905060006103e89050846001600160a01b03168460e001516001600160a01b0316036105e2578160600151811115801561047e575081604001518110155b801561049257508160800151846060015111155b156105c95760608401516040516324f1f88960e01b81526001600160a01b037f000000000000000000000000000000000000000000000000000000000000000016916324f1f889916104f0918a916001906000908c90600401610c12565b600060405180830381600087803b15801561050a57600080fd5b505af115801561051e573d6000803e3d6000fd5b505050506040838101516020015160c08601518683015192516324f1f88960e01b81526001600160a01b0392831683831614937f0000000000000000000000000000000000000000000000000000000000000000909316926324f1f88992610591928c9291600091889190600401610c12565b600060405180830381600087803b1580156105ab57600080fd5b505af11580156105bf573d6000803e3d6000fd5b5050505050610677565b604051630b2a77b160e11b815260040160405180910390fd5b826040015160600151811115801561060257508260400151604001518110155b801561061a5750826040015160800151846060015111155b156105c95760608401516040516324f1f88960e01b81526001600160a01b037f000000000000000000000000000000000000000000000000000000000000000016916324f1f889916104f0918a9160019081908c90600401610c12565b50505050505050565b600080546103e89181908061069483610a8d565b919050555060006040518061012001604052808381526020016000815260200185815260200160008152602001848152602001336001600160a01b03168152602001876001600160a01b03168152602001866001600160a01b031681526020016000151581525090508060016000848152602001908152602001600020600082015181600001556020820151816001015560408201518160020155606082015181600301556080820151816004015560a08201518160050160006101000a8154816001600160a01b0302191690836001600160a01b0316021790555060c08201518160060160006101000a8154816001600160a01b0302191690836001600160a01b0316021790555060e08201518160070160006101000a8154816001600160a01b0302191690836001600160a01b031602179055506101008201518160070160146101000a81548160ff0219169083151502179055509050506000866001600160a01b03166323b872dd337f0000000000000000000000000000000000000000000000000000000000000000886040518463ffffffff1660e01b815260040161085f939291906001600160a01b039384168152919092166020820152604081019190915260600190565b6020604051808303816000875af115801561087e573d6000803e3d6000fd5b505050506040513d601f19601f820116820180604052508101906108a29190610c40565b9050806108c2576040516310cb94cb60e31b815260040160405180910390fd5b7f68e4f578153ca82a6075dcf83eb283b1c18911628b31707b7fa80b1a9a305b58838686338b8b6040516108fb96959493929190610ab4565b60405180910390a150505050505050565b6001600160a01b038116811461092157600080fd5b50565b6000806000806080858703121561093a57600080fd5b84356109458161090c565b935060208501356109558161090c565b93969395505050506040820135916060013590565b60006020828403121561097c57600080fd5b5035919050565b600061012082019050825182526020830151602083015260408301516040830152606083015160608301526080830151608083015260018060a01b0360a08401511660a083015260018060a01b0360c08401511660c083015260e08301516109f660e08401826001600160a01b03169052565b50610100830151610a0c61010084018215159052565b5092915050565b600080600060608486031215610a2857600080fd5b83359250602084013591506040840135610a418161090c565b809150509250925092565b600080600060608486031215610a6157600080fd5b8335610a6c8161090c565b92506020840135610a7c8161090c565b929592945050506040919091013590565b600060018201610aad57634e487b7160e01b600052601160045260246000fd5b5060010190565b958652602086019490945260408501929092526001600160a01b03908116606085015290811660808401521660a082015260c00190565b600060a08284031215610afd57600080fd5b60405160a0810167ffffffffffffffff81118282101715610b2e57634e487b7160e01b600052604160045260246000fd5b6040528251815260208301519091508190610b488161090c565b60208201526040838101519082015260608084015190820152608092830151920191909152919050565b600060e0828403128015610b8557600080fd5b506040516000906060810167ffffffffffffffff81118282101715610bb857634e487b7160e01b83526041600452602483fd5b6040528351815260208401519150610bcf8261090c565b816020820152610be28560408601610aeb565b6040820152949350505050565b600060a08284031215610c0157600080fd5b610c0b8383610aeb565b9392505050565b94855260208501939093529015156040840152151560608301526001600160a01b0316608082015260a00190565b600060208284031215610c5257600080fd5b81518015158114610c0b57600080fdfea264697066735822122061ce62f06f0e39885045c49f2d5f32b14ac5d1ef7fd100a57a56539d2e4c97aa64736f6c634300081a0033","linkReferences":{}},"methodIdentifiers":{"getOrderById(uint256)":"42b50a7a","matchOrder(uint256,uint256,address)":"92b16acd","placeLimitOrder(address,address,uint256,uint256)":"09d8538b","placeMarketOrder(address,address,uint256)":"b418c55f","totalOrders()":"1d834409"},"id":41}